S01D000052756E6E696E675F4C45445F6F6E5F506F72745F412E7372656312
S11300000C942A000C943F000C943F000C943F0085
S11300100C943F000C943F000C943F000C943F0060
S11300200C943F000C943F000C943F000C943F0050
S11300300C943F000C943F000C943F000C943F0040
S11300400C943F000C943F000C943F000C943F0030
S11300500C943F0011241FBECFE5D8E0DEBFCDBF16
S113006010E0A0E6B0E0E2EEF0E002C005900D92F0
S1130070A836B107D9F70E9441000C946F000C9484
S11300800000CF93DF93CDB7DEB728970FB6F8946F
S1130090DEBF0FBECDBF8FEF8ABB88E0E0E6F0E0A5
S11300A0DE01119601900D928A95E1F780E090E0CF
S11300B012C0E1E0F0E0EC0FFD1FE80FF91F208112
S11300C02BBB2FEF30E742E0215030404040E1F7B6
S11300D000C000000196883091055CF3E7CFF894E6
S10500E0FFCF4C
S10B00E27FBFDFEFF7FBFDFE19
S9030000FC
