S0260000426C696E6B696E675F4C45445F6F7574736964655F746F5F696E736964652E7372656323
S11300000C942A000C9434000C9434000C943400A6
S11300100C9434000C9434000C9434000C9434008C
S11300200C9434000C9434000C9434000C9434007C
S11300300C9434000C9434000C9434000C9434006C
S11300400C9434000C9434000C9434000C9434005C
S11300500C94340011241FBECFE5D8E0DEBFCDBF21
S11300600E9436000C9465000C9400008FEF8ABB4C
S113007081E88BBB2FEF85EA9EE0215080409040C1
S1130080E1F700C0000082E48BBB2FEF85EA9EE01D
S1130090215080409040E1F700C0000084E28BBB17
S11300A02FEF85EA9EE0215080409040E1F700C0A8
S11300B0000088E18BBB2FEF85EA9EE02150804051
S11100C09040E1F700C00000D3CFF894FFCFCA
S9030000FC
